:107E0000112484B714BE81FFF0D085E080938100F7
:107E100082E08093C00088E18093C10086E0809377
:107E2000C20089E18093C4008EE0CAD0259A26E082
:107E300088E19EEF31E0909385008093840036BB0B
:107E4000B09BFECF1D9AA8952150A9F7812C912CAB
:107E5000EE24E39495E0D92E21E1C22E33E0F32EF7
:107E6000A3D0813489F4A0D08983B0D089818238AD
:107E700019F484E092D08EC0813819F484E08DD05A
:107E800089C083E08AD086C0823419F484E1A6D008
:107E900081C0853419F485E0A1D07CC0853549F4D2
:107EA00083D0882E81D0912C982A880C991C8ED052
:107EB00071C0863529F484E091D080E06ED06AC02C
:107EC000843609F03DC070D06FD0B82E6DD08114CB
:107ED00080E7980630F4F401F7BEE89500E011E081
:107EE00002C000E011E060D0F80181938F01BE1262
:107EF000FACF8114F0E79F0618F0F401F7BEE89579
:107F000065D007B600FCFDCFF401A0E0B1E08C9194
:107F100011962C91119790E0922B12960C01E7BECE
:107F2000E89511243296A03881E0B80781F7F40172
:107F3000D7BEE89507B600FCFDCFC7BEE8952AC0BE
:107F40008437B9F431D030D0B82E2ED03FD0F401E0
:107F5000A82CAB0C8F010F5F1F4F84911ED0F8012E
:107F6000A012F8CFFFEF8F1A9F0ABA948B0C911CC6
:107F700011C0853741F42AD08EE10FD085E90DD0AC
:107F80008FE00BD007C0813521F488E019D01ED0D6
:107F900001C01CD080E101D063CF9091C00095FF5B
:107FA000FCCF8093C60008958091C00087FFFCCF6E
:107FB0008091C00084FD01C0A8958091C6000895FD
:107FC000E0E6F0E098E1908380830895EDDF803271
:107FD00019F088E0F5DFFFCF84E1DFCFCF93C82F22
:107FE000E3DFC150E9F7CF91F1CF80E0E9DFEE2781
:047FF000FF270994CA
:027FFE00040479
:0400000300007E007B
:00000001FF
